:100000000C9462000C948A000C948A000C948A0070
:100010000C948A000C948A000C948A000C948A0038
:100020000C948A000C948A000C948A000C948A0028
:100030000C948A000C948A000C948A000C948A0018
:100040000C94B3020C948A000C9481020C945B0211
:100050000C948A000C948A000C948A000C948A00F8
:100060000C948A000C948A00000000080002010031
:100070000003040700000000000000000000000072
:1000800023002600290000000000250028002B0086
:1000900000000000240027002A00040404040404D3
:1000A0000404020202020202030303030303010227
:1000B00004081020408001020408102001020408F6
:1000C0001020420311241FBECFEFD8E0DEBFCDBF0A
:1000D00011E0A0E0B1E0E2E1FFE002C005900D9286
:1000E000A035B107D9F721E0A0E5B1E001C01D922C
:1000F000AA3FB207E1F710E0C2E6D0E004C02197C2
:10010000FE010E948107C136D107C9F70E94D003C2
:100110000C9487070C940000AF92BF92CF92DF92AD
:10012000EF92FF920F931F93CF93DF936C017B01AC
:100130008B01040F151FEB015E01AE18BF08C0173D
:10014000D10759F06991D601ED91FC910190F081B0
:10015000E02DC6010995892B79F7C501DF91CF9173
:100160001F910F91FF90EF90DF90CF90BF90AF90D5
:100170000895FC01538D448D252F30E0842F90E0AD
:10018000821B930B541710F0CF9608950197089592
:10019000FC01918D828D981761F0A28DAE0FBF2F5B
:1001A000B11D5D968C91928D9F5F9F73928F90E0B1
:1001B00008958FEF9FEF0895FC01918D828D981720
:1001C00031F0828DE80FF11D858D90E008958FEF5D
:1001D0009FEF0895FC01918D228D892F90E0805C26
:1001E0009F4F821B91098F739927089589E591E0AC
:1001F0000E94EA0021E0892B09F420E0822F089573
:1002000080E090E0892B29F00E94F60081110C9487
:1002100000000895FC01A48DA80FB92FB11DA35AA9
:10022000BF4F2C91848D90E001968F739927848F16
:10023000A689B7892C93A089B1898C918370806439
:100240008C93938D848D981306C00288F389E02DDA
:1002500080818F7D80830895EF92FF920F931F938B
:10026000CF93DF93EC0181E0888F9B8D8C8D981369
:100270001AC0E889F989808185FF15C09FB7F89475
:10028000EE89FF896083E889F989808183708064C1
:1002900080839FBF81E090E0DF91CF911F910F910C
:1002A000FF90EF900895F62E0B8D10E00F5F1F4F1B
:1002B0000F731127E02E8C8D8E110CC00FB607FC2A
:1002C000FACFE889F989808185FFF5CFCE010E94B8
:1002D0000A01F1CFEB8DEC0FFD2FF11DE35AFF4F1B
:1002E000F0829FB7F8940B8FEA89FB898081806246
:1002F000CFCFCF93DF93EC01888D8823B9F0AA8903
:10030000BB89E889F9898C9185FD03C0808186FDD0
:100310000DC00FB607FCF7CF8C9185FFF2CF80811F
:1003200085FFEDCFCE010E940A01E9CFDF91CF9189
:10033000089590E0FC01E859FF4F2491FC01E2553B
:10034000FF4F3491FC01E656FF4FE491EE23C9F0D4
:10035000222339F0233001F1A8F4213019F12230A1
:1003600029F1F0E0EE0FFF1FEA57FF4FA591B4917E
:100370008FB7F894EC91611126C030953E233C93E1
:100380008FBF08952730A9F02830C9F0243049F7ED
:10039000809180008F7D03C0809180008F77809353
:1003A0008000DFCF84B58F7784BDDBCF84B58F7DB0
:1003B000FBCF8091B0008F778093B000D2CF809137
:1003C000B0008F7DF9CF3E2BDACF3FB7F894809104
:1003D000550190915601A0915701B091580126B551
:1003E000A89B05C02F3F19F00196A11DB11D3FBF6D
:1003F000BA2FA92F982F8827BC01CD01620F711D3C
:10040000811D911D42E0660F771F881F991F4A9535
:10041000D1F70895FC0101900020E9F73197AF0171
:10042000481B590BBC0189E591E00C948C008F921C
:100430009F92AF92BF920F931F93CF93DF93CDB74D
:10044000DEB7A1970FB6F894DEBF0FBECDBF19A2DD
:10045000423008F44AE08E010F5D1F4F842E912C2C
:10046000B12CA12CA50194010E945F07E62FB901D0
:10047000CA01EA30F4F4E05DD801EE938D01232B3C
:10048000242B252B79F790E080E0109719F0CD010F
:100490000E940A02A1960FB6F894DEBF0FBECDBF30
:1004A000DF91CF911F910F91BF90AF909F908F9050
:1004B0000895E95CE1CF1F920F920FB60F921124BD
:1004C0002F933F934F935F936F937F938F939F935C
:1004D000AF93BF93EF93FF9389E591E00E940A01E8
:1004E000FF91EF91BF91AF919F918F917F916F910C
:1004F0005F914F913F912F910F900FBE0F901F90E2
:1005000018951F920F920FB60F9211242F938F936D
:100510009F93EF93FF93E0916901F0916A018081CD
:10052000E0916F01F091700182FD1BC0908180917C
:1005300072018F5F8F7320917301821741F0E091F8
:100540007201F0E0E75AFE4F958F80937201FF91A0
:10055000EF919F918F912F910F900FBE0F901F9051
:1005600018958081F4CF1F920F920FB60F9211242D
:100570002F933F938F939F93AF93BF93809151019C
:1005800090915201A0915301B091540130915001CA
:1005900023E0230F2D3758F50196A11DB11D20939F
:1005A00050018093510190935201A0935301B09355
:1005B00054018091550190915601A0915701B0913D
:1005C00058010196A11DB11D8093550190935601CC
:1005D000A0935701B0935801BF91AF919F918F9114
:1005E0003F912F910F900FBE0F901F90189526E806
:1005F000230F0296A11DB11DD2CFCF92DF92EF92B1
:10060000FF920F931F93E82FF92F05C00150110996
:100610002109310961F1908196239417B9F305C03E
:10062000015011092109310911F190819623941388
:10063000F7CFC12CD12CE12CF12C0AC08FEFC81AB6
:10064000D80AE80AF80A0C151D052E053F0579F0B1
:1006500080818623841791F36C2D7D2D8E2D9F2D07
:100660001F910F91FF90EF90DF90CF90089560E081
:1006700070E080E090E01F910F91FF90EF90DF908D
:10068000CF900895CF93DF9310925C0110925B019D
:1006900088EE93E0A0E0B0E080935D0190935E016E
:1006A000A0935F01B093600184E091E090935A01C0
:1006B0008093590185EC90E09093660180936501E9
:1006C00084EC90E0909368018093670180EC90E067
:1006D00090936A018093690181EC90E090936C01A2
:1006E00080936B0182EC90E090936E0180936D019A
:1006F00086EC90E09093700180936F0110927201EC
:1007000010927301109274011092750187E090E0CD
:100710009093F7018093F60188E090E09093F901BF
:100720008093F801E5EBF0E02491E1EAF0E08491B8
:10073000882399F090E0880F991FFC01E057FF4F44
:10074000A591B491FC01EA57FF4F859194918FB721
:10075000F894EC91E22BEC938FBFE6EBF0E0249160
:10076000E2EAF0E084918823C1F090E0880F991FBD
:10077000FC01E057FF4FC591D491FC01EA57FF4FB0
:10078000A591B4919FB7F8948881E22FE0958E23CC
:1007900088838C91E823EC939FBFDF91CF910895DC
:1007A000789484B5826084BD84B5816084BD85B54C
:1007B000826085BD85B5816085BD80916E00816058
:1007C00080936E00109281008091810082608093FE
:1007D0008100809181008160809381008091800000
:1007E0008160809380008091B10084608093B1002B
:1007F0008091B00081608093B00080917A00846025
:1008000080937A0080917A00826080937A00809150
:100810007A00816080937A0080917A00806880936A
:100820007A001092C100E0916901F0916A0182E0C2
:100830008083E0916501F09166011082E09167018B
:10084000F09168018FEC808310927101E0916D014D
:10085000F0916E0186E08083E0916B01F0916C0174
:10086000808180618083E0916B01F0916C018081D7
:1008700088608083E0916B01F0916C0180818068D9
:100880008083E0916B01F0916C0180818F7D80838A
:1008900082E191E00E940A028BE291E00E940A024A
:1008A000C3E0D0E033E2E32EF12C40E0C42E40E080
:1008B000D42E60E08091F6010E949901CE0101974B
:1008C000F1F761E08091F6010E949901C70101975B
:1008D000F1F760E08091F6010E9499018091F801A2
:1008E0009091F9019927FC01E255FF4F6491FC01B9
:1008F000E656FF4FE491F0E0EE0FFF1FE458FF4F84
:100900008591949100E412E42FE030E0462F0E949C
:10091000FD02611571058105910529F06F5F7F4F1B
:100920008F4F9F4F9F700E94360620E030E040E0DE
:100930005FE30E94ED062AE23EE74CE05DE30E94A1
:10094000ED064B015C0120E030E0A9010E940206A7
:10095000882351F020E030E048EC53E4C501B401B5
:100960000E94E806181634F4812C912C90E8A92EE8
:100970009FEBB92E8EE291E00E940A02A50194013C
:10098000C501B4010E945A078823E9F180E491E08F
:100990000E940A028CE491E00E940A028BE291E03C
:1009A0000E940A020E94E5012B013C0188EE882E7C
:1009B00083E0982EA12CB12C0E94E50164197509E1
:1009C00086099709683E734081059105A8F321E0E7
:1009D000821A9108A108B10888EE480E83E0581EDB
:1009E000611C711C81149104A104B10429F7C11484
:1009F000D10409F45ECF0E94F600882309F459CF90
:100A00000E94000056CF24013501E89477F82FEFBB
:100A10003FEF4FE75FE7C301B2010E945A07811120
:100A20000DC02FEF3FEF4FE75FE7C301B2010E9418
:100A3000020618161CF484E491E0AACF2FEF3FEFD2
:100A40004FE75FE4C501B4010E94E80618161CF4E4
:100A500088E491E09DCF2FEF3FEF4FE75FECC501BA
:100A6000B4010E94020687FDF3CF20E030E0A90127
:100A7000C501B4010E94020687FF09C06DE289E545
:100A800091E00E942C01B7FAB094B7F8B0942AE034
:100A900037ED43EA5BE3C501B4010E9496052B01E3
:100AA0003C010E9407064B015C010E9436069B0137
:100AB000AC01C301B2010E9495052B013C014AE043
:100AC000C501B4010E9417026EE289E591E00E941F
:100AD0002C0120E030E040E251E4C301B2010E9469
:100AE000ED062B013C010E9407064B01B12CA12C05
:100AF0004AE0C501B4010E941702C501B4010E9479
:100B000036069B01AC01C301B2010E94950520E0AD
:100B100030E040E251E40E94ED060E94070690E0BA
:100B200080E04AE00E94170235CF5058BB27AA2721
:100B30000E94AD050C94AE060E94A00638F00E94FB
:100B4000A70620F039F49F3F19F426F40C949D0673
:100B50000EF4E095E7FB0C949706E92F0E94BF0680
:100B600058F3BA17620773078407950720F079F4E2
:100B7000A6F50C94E1060EF4E0950B2EBA2FA02DED
:100B80000B01B90190010C01CA01A0011124FF273A
:100B9000591B99F0593F50F4503E68F11A16F04035
:100BA000A22F232F342F4427585FF3CF4695379534
:100BB0002795A795F0405395C9F77EF41F16BA0BF9
:100BC000620B730B840BBAF09150A1F0FF0FBB1FA7
:100BD000661F771F881FC2F70EC0BA0F621F731FF0
:100BE000841F48F4879577956795B795F7959E3F4D
:100BF00008F0B0CF9395880F08F09927EE0F9795DE
:100C0000879508950E94730608F481E008950E9474
:100C1000C70688F09F5798F0B92F9927B751B0F0C1
:100C2000E1F0660F771F881F991F1AF0BA95C9F770
:100C300014C0B13091F00E94E106B1E008950C9427
:100C4000E106672F782F8827B85F39F0B93FCCF3DA
:100C5000869577956795B395D9F73EF490958095ED
:100C6000709561957F4F8F4F9F4F0895E89409C00D
:100C700097FB3EF490958095709561957F4F8F4FCF
:100C80009F4F9923A9F0F92F96E9BB279395F695E5
:100C9000879577956795B795F111F8CFFAF4BB0F63
:100CA00011F460FF1BC06F5F7F4F8F4F9F4F16C0C7
:100CB000882311F096E911C0772321F09EE8872F51
:100CC000762F05C0662371F096E8862F70E060E00D
:100CD0002AF09A95660F771F881FDAF7880F969586
:100CE000879597F90895990F0008550FAA0BE0E82A
:100CF000FEEF16161706E807F907C0F012161306DE
:100D0000E407F50798F0621B730B840B950B39F41D
:100D10000A2661F0232B242B252B21F408950A2683
:100D200009F4A140A6958FEF811D811D089597F9C3
:100D30009F6780E870E060E008959FEF80EC089581
:100D400000240A94161617061806090608950024AA
:100D50000A9412161306140605060895092E039424
:100D6000000C11F4882352F0BB0F40F4BF2B11F498
:100D700060FF04C06F5F7F4F8F4F9F4F089557FDF7
:100D80009058440F551F59F05F3F71F04795880FF9
:100D900097FB991F61F09F3F79F087950895121690
:100DA00013061406551FF2CF4695F1DF08C016163C
:100DB00017061806991FF1CF8695710561050894ED
:100DC0000895E894BB2766277727CB0197F9089504
:100DD0000E94730608F48FEF08950E9400070C9498
:100DE000AE060E94A00638F00E94A70620F09523C8
:100DF00011F00C9497060C949D0611240C94E206B5
:100E00000E94BF0670F3959FC1F3950F50E0551FE8
:100E1000629FF001729FBB27F00DB11D639FAA274F
:100E2000F00DB11DAA1F649F6627B00DA11D661F9E
:100E3000829F2227B00DA11D621F739FB00DA11DBF
:100E4000621F839FA00D611D221F749F3327A00D79
:100E5000611D231F849F600D211D822F762F6A2F15
:100E600011249F5750409AF0F1F088234AF0EE0F7A
:100E7000FF1FBB1F661F771F881F91505040A9F7A7
:100E80009E3F510580F00C9497060C94E2065F3F5C
:100E9000E4F3983ED4F3869577956795B795F795E3
:100EA000E7959F5FC1F7FE2B880F911D969587955B
:100EB00097F908950E947306880B990B0895A1E293
:100EC0001A2EAA1BBB1BFD010DC0AA1FBB1FEE1FC4
:100ED000FF1FA217B307E407F50720F0A21BB30B0F
:100EE000E40BF50B661F771F881F991F1A9469F78B
:100EF00060957095809590959B01AC01BD01CF01E7
:100F00000895EE0FFF1F0590F491E02D0994F894D9
:020F1000FFCF11
:100F1200000000002C018C00B9007901EA00C80031
:100F2200DC004C656E646F206461646F7320646FD3
:100F32002053656E736F722E2E2E000D0A005365BC
:100F42006E736F722044697265697461203D20007E
:100F52006E616E00696E66006F76660020434D001A
:107E0000112484B714BE81FFF0D085E080938100F7
:107E100082E08093C00088E18093C10086E0809377
:107E2000C20080E18093C4008EE0C9D0259A86E02C
:107E300020E33CEF91E0309385002093840096BBD3
:107E4000B09BFECF1D9AA8958150A9F7CC24DD24C4
:107E500088248394B5E0AB2EA1E19A2EF3E0BF2EE7
:107E6000A2D0813461F49FD0082FAFD0023811F036
:107E7000013811F484E001C083E08DD089C08234E0
:107E800011F484E103C0853419F485E0A6D080C0E4
:107E9000853579F488D0E82EFF2485D0082F10E0AE
:107EA000102F00270E291F29000F111F8ED06801E7
:107EB0006FC0863521F484E090D080E0DECF843638
:107EC00009F040C070D06FD0082F6DD080E0C81688
:107ED00080E7D80618F4F601B7BEE895C0E0D1E017
:107EE00062D089930C17E1F7F0E0CF16F0E7DF06D8
:107EF00018F0F601B7BEE89568D007B600FCFDCFD4
:107F0000A601A0E0B1E02C9130E011968C91119780
:107F100090E0982F8827822B932B1296FA010C0160
:107F200087BEE89511244E5F5F4FF1E0A038BF0790
:107F300051F7F601A7BEE89507B600FCFDCF97BE46
:107F4000E89526C08437B1F42ED02DD0F82E2BD052
:107F50003CD0F601EF2C8F010F5F1F4F84911BD097
:107F6000EA94F801C1F70894C11CD11CFA94CF0C13
:107F7000D11C0EC0853739F428D08EE10CD085E9AC
:107F80000AD08FE07ACF813511F488E018D01DD067
:107F900080E101D065CF982F8091C00085FFFCCF94
:107FA0009093C60008958091C00087FFFCCF809118
:107FB000C00084FD01C0A8958091C6000895E0E648
:107FC000F0E098E1908380830895EDDF803219F02E
:107FD00088E0F5DFFFCF84E1DECF1F93182FE3DFCA
:107FE0001150E9F7F2DF1F91089580E0E8DFEE27F6
:047FF000FF270994CA
:027FFE00040479
:0400000300007E007B
:00000001FF
