:100000000C945D000C9485000C9485000C94850084
:100010000C9485000C9485000C9485000C9485004C
:100020000C9485000C9485000C9485000C9485003C
:100030000C9485000C9485000C9485000C9485002C
:100040000C9459030C9485000C9427030C94010321
:100050000C9485000C9485000C9485000C9485000C
:100060000C9485000C9485000000000024002700FB
:100070002A0000000000250028002B0004040404CE
:100080000404040402020202020203030303030342
:10009000010204081020408001020408102001021F
:1000A00004081020000000080002010000030407FB
:1000B0000000000000000000000511241FBECFEF6B
:1000C000D8E0DEBFCDBF11E0A0E0B1E0EEEAFAE09B
:1000D00002C005900D92A835B107D9F721E0A8E537
:1000E000B1E001C01D92AE3FB207E1F710E0CDE5EF
:1000F000D0E004C02197FE010E944F05CC35D10706
:10010000C9F70E94A3030C9455050C940000AF920C
:10011000BF92CF92DF92EF92FF920F931F93CF93F4
:10012000DF936C017B018B01040F151FEB015E0156
:10013000AE18BF08C017D10759F06991D601ED91EB
:10014000FC910190F081E02DC6010995892B79F78A
:10015000C501DF91CF911F910F91FF90EF90DF903C
:10016000CF90BF90AF900895FC01538D448D252F03
:1001700030E0842F90E0821B930B541710F0CF9641
:10018000089501970895FC01918D828D981761F073
:10019000A28DAE0FBF2FB11D5D968C91928D9F5F8A
:1001A0009F73928F90E008958FEF9FEF0895FC0169
:1001B000918D828D981731F0828DE80FF11D858D1C
:1001C00090E008958FEF9FEF0895FC01918D228DAF
:1001D000892F90E0805C9F4F821B91098F73992734
:1001E000089581E691E00E94E50021E0892B09F461
:1001F00020E0822F089580E090E0892B29F00E9472
:10020000F10081110C9400000895FC01A48DA80F49
:10021000B92FB11DA35ABF4F2C91848D90E0019648
:100220008F739927848FA689B7892C93A089B18968
:100230008C91837080648C93938D848D981306C009
:100240000288F389E02D80818F7D80830895EF926D
:10025000FF920F931F93CF93DF93EC0181E0888F80
:100260009B8D8C8D98131AC0E889F989808185FF50
:1002700015C09FB7F894EE89FF896083E889F989F2
:1002800080818370806480839FBF81E090E0DF91F4
:10029000CF911F910F91FF90EF900895F62E0B8D47
:1002A00010E00F5F1F4F0F731127E02E8C8D8E1102
:1002B0000CC00FB607FCFACFE889F989808185FF69
:1002C000F5CFCE010E940501F1CFEB8DEC0FFD2F94
:1002D000F11DE35AFF4FF0829FB7F8940B8FEA8924
:1002E000FB8980818062CFCFCF93DF93EC01888D33
:1002F0008823B9F0AA89BB89E889F9898C9185FDA1
:1003000003C0808186FD0DC00FB607FCF7CF8C912E
:1003100085FFF2CF808185FFEDCFCE010E940501E0
:10032000E9CFDF91CF91089590E0FC01EC55FF4FAC
:100330002491FC01E057FF4F3491FC01E458FF4F3A
:10034000E491EE23C9F0222339F0233001F1A8F41F
:10035000213019F1223029F1F0E0EE0FFF1FEE58A5
:10036000FF4FA591B4918FB7F894EC91611126C01D
:1003700030953E233C938FBF08952730A9F0283055
:10038000C9F0243049F7809180008F7D03C08091AF
:1003900080008F7780938000DFCF84B58F7784BD16
:1003A000DBCF84B58F7DFBCF8091B0008F778093BA
:1003B000B000D2CF8091B0008F7DF9CF3E2BDACF45
:1003C000CF93DF9390E0FC01E057FF4F24918458D6
:1003D0009F4FFC0184918823D1F090E0880F991FF2
:1003E000FC01E859FF4FA591B491FC01EE58FF4F75
:1003F000C591D49161110EC09FB7F8948C91E22FF2
:10040000E0958E238C932881E223E8839FBFDF91C0
:10041000CF9108958FB7F894EC91E22BEC938FBFB6
:10042000F6CF8E50806480937C0080917A00806447
:1004300080937A0080917A0086FDFCCF80917800CD
:100440009091790008953FB7F89480915D01909163
:100450005E01A0915F01B091600126B5A89B05C027
:100460002F3F19F00196A11DB11D3FBFBA2FA92F33
:10047000982F8827BC01CD01620F711D811D911D30
:1004800042E0660F771F881F991F4A95D1F708959C
:10049000FC0101900020E9F73197AF01481B590B8F
:1004A000BC0181E691E00C9487008F929F92AF92FD
:1004B000BF920F931F93CF93DF93CDB7DEB7A19772
:1004C0000FB6F894DEBF0FBECDBF19A2423008F4BC
:1004D0004AE08E010F5D1F4F842E912CB12CA12C70
:1004E000A50194010E942D05E62FB901CA01EA3049
:1004F000F4F4E05DD801EE938D01232B242B252B02
:1005000079F790E080E0109719F0CD010E94480241
:10051000A1960FB6F894DEBF0FBECDBFDF91CF918D
:100520001F910F91BF90AF909F908F900895E95CBD
:10053000E1CFCF92DF92EF92FF92CF93DF936B01E7
:100540007C016DE281E691E00E942701EC016627C3
:100550007727CB016C197D098E099F094AE00E941B
:1005600055028C0F9D1FDF91CF91FF90EF90DF9090
:10057000CF900895E82FF0E0EC55FF4FE491E33081
:1005800021F138F4E130B9F0E230D1F061E00C94BF
:100590009401E73031F1E83061F1E430B9F780914E
:1005A000800080628093800080E091E090938B00D7
:1005B00080938A00089584B5806884BD17BC08952F
:1005C00084B5806284BD18BC0895809180008068E5
:1005D0008093800080E091E0909389008093880070
:1005E00008958091B00080688093B0001092B300AD
:1005F00008958091B00080628093B0001092B400A2
:1006000008951F920F920FB60F9211242F933F93CC
:100610004F935F936F937F938F939F93AF93BF930A
:10062000EF93FF9381E691E00E940501FF91EF9126
:10063000BF91AF919F918F917F916F915F914F91FA
:100640003F912F910F900FBE0F901F9018951F9202
:100650000F920FB60F9211242F938F939F93EF93C6
:10066000FF93E0917101F09172018081E091770137
:10067000F091780182FD1BC0908180917A018F5F9B
:100680008F7320917B01821741F0E0917A01F0E0B5
:10069000EF59FE4F958F80937A01FF91EF919F91D3
:1006A0008F912F910F900FBE0F901F901895808102
:1006B000F4CF1F920F920FB60F9211242F933F93F6
:1006C0008F939F93AF93BF938091590190915A015B
:1006D000A0915B01B0915C013091580123E0230FA0
:1006E0002D3758F50196A11DB11D20935801809317
:1006F000590190935A01A0935B01B0935C018091E2
:100700005D0190915E01A0915F01B0916001019641
:10071000A11DB11D80935D0190935E01A0935F01C7
:10072000B0936001BF91AF919F918F913F912F91B5
:100730000F900FBE0F901F90189526E8230F02967A
:10074000A11DB11DD2CF789484B5826084BD84B5DB
:10075000816084BD85B5826085BD85B5816085BDBC
:1007600080916E00816080936E0010928100809174
:1007700081008260809381008091810081608093FC
:100780008100809180008160809380008091B10021
:1007900084608093B1008091B00081608093B0004C
:1007A00080917A00846080937A0080917A008260E0
:1007B00080937A0080917A00816080937A008091A2
:1007C0007A00806880937A001092C10060E08EE029
:1007D0000E94E00160E08FE00E94E00161E080E1C2
:1007E0000E94E00161E081E10E94E00161E088E0B7
:1007F0000E94E00161E089E00E94E00161E08AE09E
:100800000E94E00161E08BE00E94E001E091710153
:10081000F091720182E08083E0916D01F0916E01B0
:100820001082E0916F01F09170018FEC8083109243
:100830007901E0917501F091760186E08083E09185
:100840007301F0917401808180618083E091730174
:10085000F0917401808188608083E0917301F09150
:100860007401808180688083E0917301F09174014C
:1008700080818F7D808382E191E00E9448028BE23B
:1008800091E00E94480290E0A92E90E0B92E8EE0FF
:100890000E9411028C018FE00E941102EC018EE295
:1008A00091E00E944802B801012E000C880B990BC0
:1008B00097FF6DC00E9499028BE291E00E9448026E
:1008C00083E491E00E944802BE010D2E000C880BCB
:1008D000990B97FF60C00E9499028BE291E00E9401
:1008E000480261E080E10E94E00180E10E94BA02DA
:1008F00061E081E10E94E00181E10E94BA020436D8
:1009000011050CF060C0C436D1050CF048C061E0A0
:100910008AE00E94940161E088E00E94940160E016
:100920008BE00E94940160E089E00E9494010E94A3
:1009300023026B017C0188EC482E512C612C712C18
:100940000E9423026C197D098E099F09683E73403D
:1009500081059105A8F321E0421A51086108710848
:1009600088EEC80E83E0D81EE11CF11C411451042E
:100970006104710429F7A114B10409F488CF0E941D
:10098000F100882309F483CF0E94000080CF4AE061
:100990000E94550291CF4AE00E9455029ECFC43674
:1009A000D10549F360E08AE00E94940161E088E0AB
:1009B0000E94940160E08BE00E94940160E089E075
:1009C0000E949401D8CF04361105A9F2C436D1058E
:1009D00034F461E08AE00E94940160E0E8CFC4361C
:1009E000D10549F260E08AE00E94940160E088E06D
:1009F0000E94940161E08BE00E94940161E0DFCFEE
:100A0000E1E6F1E01382128288EE93E0A0E0B0E02C
:100A100084839583A683B78384E091E09183808368
:100A200085EC90E09587848784EC90E097878687B3
:100A300080EC90E0918B808B81EC90E0938B828BAB
:100A400082EC90E0958B848B86EC90E0978B868B84
:100A5000118E128E138E148E0895A1E21A2EAA1BE7
:100A6000BB1BFD010DC0AA1FBB1FEE1FFF1FA2175E
:100A7000B307E407F50720F0A21BB30BE40BF50B5B
:100A8000661F771F881F991F1A9469F760957095E4
:100A9000809590959B01AC01BD01CF010895EE0FAB
:0E0AA000FF1F0590F491E02D0994F894FFCF0C
:100AAE000000000027018700B4007401E500C300B8
:100ABE00D7004C656E646F206461646F7320646F41
:100ACE002053656E736F722E2E2E000D0A000A4F84
:100ADE002053656E736F72204469726569746F0975
:100AEE002D09004F2053656E736F7220457371751B
:080AFE006572646F092D090007
:107E0000112484B714BE81FFF0D085E080938100F7
:107E100082E08093C00088E18093C10086E0809377
:107E2000C20080E18093C4008EE0C9D0259A86E02C
:107E300020E33CEF91E0309385002093840096BBD3
:107E4000B09BFECF1D9AA8958150A9F7CC24DD24C4
:107E500088248394B5E0AB2EA1E19A2EF3E0BF2EE7
:107E6000A2D0813461F49FD0082FAFD0023811F036
:107E7000013811F484E001C083E08DD089C08234E0
:107E800011F484E103C0853419F485E0A6D080C0E4
:107E9000853579F488D0E82EFF2485D0082F10E0AE
:107EA000102F00270E291F29000F111F8ED06801E7
:107EB0006FC0863521F484E090D080E0DECF843638
:107EC00009F040C070D06FD0082F6DD080E0C81688
:107ED00080E7D80618F4F601B7BEE895C0E0D1E017
:107EE00062D089930C17E1F7F0E0CF16F0E7DF06D8
:107EF00018F0F601B7BEE89568D007B600FCFDCFD4
:107F0000A601A0E0B1E02C9130E011968C91119780
:107F100090E0982F8827822B932B1296FA010C0160
:107F200087BEE89511244E5F5F4FF1E0A038BF0790
:107F300051F7F601A7BEE89507B600FCFDCF97BE46
:107F4000E89526C08437B1F42ED02DD0F82E2BD052
:107F50003CD0F601EF2C8F010F5F1F4F84911BD097
:107F6000EA94F801C1F70894C11CD11CFA94CF0C13
:107F7000D11C0EC0853739F428D08EE10CD085E9AC
:107F80000AD08FE07ACF813511F488E018D01DD067
:107F900080E101D065CF982F8091C00085FFFCCF94
:107FA0009093C60008958091C00087FFFCCF809118
:107FB000C00084FD01C0A8958091C6000895E0E648
:107FC000F0E098E1908380830895EDDF803219F02E
:107FD00088E0F5DFFFCF84E1DECF1F93182FE3DFCA
:107FE0001150E9F7F2DF1F91089580E0E8DFEE27F6
:047FF000FF270994CA
:027FFE00040479
:0400000300007E007B
:00000001FF
