:100000000C9462000C948A000C948A000C948A0070
:100010000C948A000C948A000C948A000C948A0038
:100020000C948A000C948A000C948A000C948A0028
:100030000C948A000C948A000C948A000C948A0018
:100040000C94F1020C948A000C94BF020C94990257
:100050000C948A000C948A000C948A000C948A00F8
:100060000C948A000C948A000000000024002700F1
:100070002A0000000000250028002B0000000008D6
:10008000000201000003040700000000000000005F
:1000900000000000230026002900040404040404D6
:1000A0000404020202020202030303030303010227
:1000B00004081020408001020408102001020408F6
:1000C0001020B10311241FBECFEFD8E0DEBFCDBF9B
:1000D00011E0A0E0B1E0ECE6FDE002C005900D9279
:1000E000AA38B107D9F722E0AAE8B1E001C01D9211
:1000F000A034B207E1F710E0C2E6D0E004C02197D7
:10010000FE010E94AE06C136D107C9F70E94010464
:100110000C94B4060C940000AF92BF92CF92DF9281
:10012000EF92FF920F931F93CF93DF936C017B01AC
:100130008B01040F151FEB015E01AE18BF08C0173D
:10014000D10759F06991D601ED91FC910190F081B0
:10015000E02DC6010995892B79F7C501DF91CF9173
:100160001F910F91FF90EF90DF90CF90BF90AF90D5
:100170000895FC01538D448D252F30E0842F90E0AD
:10018000821B930B541710F0CF9608950197089592
:10019000FC01918D828D981761F0A28DAE0FBF2F5B
:1001A000B11D5D968C91928D9F5F9F73928F90E0B1
:1001B00008958FEF9FEF0895FC01918D828D981720
:1001C00031F0828DE80FF11D858D90E008958FEF5D
:1001D0009FEF0895FC01918D228D892F90E0805C26
:1001E0009F4F821B91098F73992708958BE991E0A6
:1001F0000E94EA0021E0892B09F420E0822F089573
:1002000080E090E0892B29F00E94F60081110C9487
:1002100000000895FC01A48DA80FB92FB11DA35AA9
:10022000BF4F2C91848D90E001968F739927848F16
:10023000A689B7892C93A089B1898C918370806439
:100240008C93938D848D981306C00288F389E02DDA
:1002500080818F7D80830895EF92FF920F931F938B
:10026000CF93DF93EC0181E0888F9B8D8C8D981369
:100270001AC0E889F989808185FF15C09FB7F89475
:10028000EE89FF896083E889F989808183708064C1
:1002900080839FBF81E090E0DF91CF911F910F910C
:1002A000FF90EF900895F62E0B8D10E00F5F1F4F1B
:1002B0000F731127E02E8C8D8E110CC00FB607FC2A
:1002C000FACFE889F989808185FFF5CFCE010E94B8
:1002D0000A01F1CFEB8DEC0FFD2FF11DE35AFF4F1B
:1002E000F0829FB7F8940B8FEA89FB898081806246
:1002F000CFCFCF93DF93EC01888D8823B9F0AA8903
:10030000BB89E889F9898C9185FD03C0808186FDD0
:100310000DC00FB607FCF7CF8C9185FFF2CF80811F
:1003200085FFEDCFCE010E940A01E9CFDF91CF9189
:10033000089590E0FC01E458FF4F2491FC01E25540
:10034000FF4F3491FC01E656FF4FE491EE23C9F0D4
:10035000222339F0233001F1A8F4213019F12230A1
:1003600029F1F0E0EE0FFF1FEE58FF4FA591B49179
:100370008FB7F894EC91611126C030953E233C93E1
:100380008FBF08952730A9F02830C9F0243049F7ED
:10039000809180008F7D03C0809180008F77809353
:1003A0008000DFCF84B58F7784BDDBCF84B58F7DB0
:1003B000FBCF8091B0008F778093B000D2CF809137
:1003C000B0008F7DF9CF3E2BDACF3FB7F894809104
:1003D0008F0190919001A0919101B091920126B569
:1003E000A89B05C02F3F19F00196A11DB11D3FBF6D
:1003F000BA2FA92F982F8827BC01CD01620F711D3C
:10040000811D911D42E0660F771F881F991F4A9535
:10041000D1F70895CF93DF93FC0101900020E9F715
:100420003197AF01481B590BBC018BE991E00E9449
:100430008C00EC0142E050E062E171E08BE991E078
:100440000E948C008C0F9D1FDF91CF910895CF9259
:10045000DF92EF92FF920F931F93CF93DF93EC0104
:1004600060E088810E94990183E090E00197F1F7B4
:1004700061E088810E94990183E290E00197F1F7A1
:1004800060E088810E9499018A819B819927FC0103
:10049000E255FF4F6491FC01E656FF4FE491F0E016
:1004A000EE0FFF1FE057FF4F8591949100E412E497
:1004B0002FE030E0462F0E943B0361157105810556
:1004C000910529F06F5F7F4F8F4F9F4F9F700E9464
:1004D0008A0520E030E040E05FE30E94F0052AE278
:1004E0003EE74CE05DE30E94F0056B017C0120E0FB
:1004F00030E0A9010E948505882351F020E030E01A
:1005000048EC53E4C701B6010E94EB05181634F419
:10051000C12CD12C80E8E82E8FEBF82EC701B60154
:10052000DF91CF911F910F91FF90EF90DF90CF90CF
:1005300008951F920F920FB60F9211242F933F939D
:100540004F935F936F937F938F939F93AF93BF93DB
:10055000EF93FF938BE991E00E940A01FF91EF91E5
:10056000BF91AF919F918F917F916F915F914F91CB
:100570003F912F910F900FBE0F901F9018951F92D3
:100580000F920FB60F9211242F938F939F93EF9397
:10059000FF93E091AB01F091AC018081E091B1015A
:1005A000F091B20182FD1BC090818091B4018F5FF8
:1005B0008F732091B501821741F0E091B401F0E012
:1005C000E556FE4F958F8093B401FF91EF919F9177
:1005D0008F912F910F900FBE0F901F9018958081D3
:1005E000F4CF1F920F920FB60F9211242F933F93C7
:1005F0008F939F93AF93BF9380918B0190918C01C8
:10060000A0918D01B0918E0130918A0123E0230FDA
:100610002D3758F50196A11DB11D20938A018093B5
:100620008B0190938C01A0938D01B0938E018091EA
:100630008F0190919001A0919101B091920101964A
:10064000A11DB11D80938F0190939001A093910102
:10065000B0939201BF91AF919F918F913F912F9154
:100660000F900FBE0F901F90189526E8230F02964B
:10067000A11DB11DD2CFCF92DF92EF92FF920F93C7
:100680001F93E82FF92F05C00150110921093109E5
:1006900061F1908196239417B9F305C001501109B7
:1006A0002109310911F1908196239413F7CFC12CC0
:1006B000D12CE12CF12C0AC08FEFC81AD80AE80A15
:1006C000F80A0C151D052E053F0579F0808186235B
:1006D000841791F36C2D7D2D8E2D9F2D1F910F91E1
:1006E000FF90EF90DF90CF90089560E070E080E0A1
:1006F00090E01F910F91FF90EF90DF90CF900895C1
:10070000CF93DF9390E0FC01E255FF4F2491865692
:100710009F4FFC0184918823D1F090E0880F991FAE
:10072000FC01E859FF4FA591B491FC01EE58FF4F31
:10073000C591D49161110EC09FB7F8948C91E22FAE
:10074000E0958E238C932881E223E8839FBFDF917D
:10075000CF9108958FB7F894EC91E22BEC938FBF73
:10076000F6CFEBE9F1E01382128288EE93E0A0E08D
:10077000B0E084839583A683B78384E091E091837E
:10078000808385EC90E09587848784EC90E0978760
:10079000868780EC90E0918B808B81EC90E0938B4E
:1007A000828B82EC90E0958B848B86EC90E0978B2B
:1007B000868B118E128E138E148EECE3F2E08CE099
:1007C00090E0918380838DE090E09383828361E069
:1007D0008CE00E94800360E08DE00E948003E8E3EB
:1007E000F2E082E090E09183808383E090E0938365
:1007F000828361E082E00E94800360E083E00C94E9
:100800008003789484B5826084BD84B5816084BDA2
:1008100085B5826085BD85B5816085BD80916E009E
:10082000816080936E0010928100809181008260CF
:10083000809381008091810081608093810080910C
:1008400080008160809380008091B10084608093FB
:10085000B1008091B00081608093B00080917A00F7
:10086000846080937A0080917A00826080937A001D
:1008700080917A00816080937A0080917A0080680C
:1008800080937A001092C100E091AB01F091AC012D
:1008900082E08083E091A701F091A8011082E091AD
:1008A000A901F091AA018FEC80831092B301E0912D
:1008B000AF01F091B00186E08083E091AD01F0914D
:1008C000AE01808180618083E091AD01F091AE0145
:1008D000808188608083E091AD01F091AE018081DC
:1008E00080688083E091AD01F091AE0180818F7DC1
:1008F000808385E191E00E940A0220E0A22E20E0A0
:10090000B22EC2E0D0E001E010E0EE24E394F12C3E
:100910008CE392E00E94270220E030E040E751E4BF
:100920000E94850587FF26C088E392E00E94270287
:1009300020E030E040E751E40E94EB051816D4F4C3
:100940008091990190919A01892B51F4809197019E
:1009500090919801009739F410939A0100939901AE
:10096000F12CE12CD5CF0197D9F7D0939A01C09300
:100970009901F6CFEF28B1F188E392E00E942702B7
:1009800020E030E040E751E40E94850587FF2AC05F
:100990008CE392E00E94270220E030E040E751E43F
:1009A0000E94EB051816F4F48091990190919A0138
:1009B000009759F48091970190919801892BE1F665
:1009C0001093980100939701D7CF0197A9F68091D2
:1009D000970190919801892B79F6D0939801C09353
:1009E0009701CACF8091990190919A018130910528
:1009F000A1F42091970130919801232B71F420915B
:100A0000950130919601232B41F4909396018093A8
:100A100095018EE291E00E940A02809199019091E5
:100A20009A01892BA9F480919701909198018130C6
:100A3000910571F42091930130919401232B41F49D
:100A4000909394018093930183E491E00E940A02C1
:100A50008091990190919A018130910509F04AC0E5
:100A600080919701909198010297A1F489E591E016
:100A70000E940A0210929601109295011092940120
:100A800010929301109298011092970110929A017E
:100A9000109299010E94E5012B013C0184E6C82EC9
:100AA000D12CE12CF12C0E94E5016419750986090D
:100AB0009709683E734081059105A8F321E0C21AA9
:100AC000D108E108F10888EE480E83E0581E611C49
:100AD000711CC114D104E104F10429F7A114B1047B
:100AE00009F413CF0E94F600882309F40ECF0E9468
:100AF00000000BCF029771F68091970190919801B9
:100B0000019741F681E791E0B3CF0E94C70508F451
:100B100081E00895E89409C097FB3EF49095809594
:100B2000709561957F4F8F4F9F4F9923A9F0F92FB3
:100B300096E9BB279395F695879577956795B79531
:100B4000F111F8CFFAF4BB0F11F460FF1BC06F5F17
:100B50007F4F8F4F9F4F16C0882311F096E911C029
:100B6000772321F09EE8872F762F05C0662371F04A
:100B700096E8862F70E060E02AF09A95660F771F5E
:100B8000881FDAF7880F9695879597F90895990F3A
:100B90000008550FAA0BE0E8FEEF16161706E80747
:100BA000F907C0F012161306E407F50798F0621B68
:100BB000730B840B950B39F40A2661F0232B242B3D
:100BC000252B21F408950A2609F4A140A6958FEF5C
:100BD000811D811D08950E94C70508F48FEF0895B7
:100BE0000E9403060C9474060E94660638F00E9468
:100BF0006D0620F0952311F00C945D060C946306AD
:100C000011240C94A8060E94850670F3959FC1F3E9
:100C1000950F50E0551F629FF001729FBB27F00DAA
:100C2000B11D639FAA27F00DB11DAA1F649F6627FF
:100C3000B00DA11D661F829F2227B00DA11D621F4E
:100C4000739FB00DA11D621F839FA00D611D221F08
:100C5000749F3327A00D611D231F849F600D211DEC
:100C6000822F762F6A2F11249F5750409AF0F1F06F
:100C700088234AF0EE0FFF1FBB1F661F771F881FD8
:100C800091505040A9F79E3F510580F00C945D06AD
:100C90000C94A8065F3FE4F3983ED4F386957795CD
:100CA0006795B795F795E7959F5FC1F7FE2B880F7E
:100CB000911D9695879597F9089597F99F6780E814
:100CC00070E060E008959FEF80EC089500240A949E
:100CD0001616170618060906089500240A94121617
:100CE0001306140605060895092E0394000C11F44A
:100CF000882352F0BB0F40F4BF2B11F460FF04C0F7
:100D00006F5F7F4F8F4F9F4F089557FD9058440F4F
:100D1000551F59F05F3F71F04795880F97FB991F5A
:100D200061F09F3F79F08795089512161306140617
:100D3000551FF2CF4695F1DF08C0161617061806A4
:100D4000991FF1CF86957105610508940895E8947F
:100D5000BB2766277727CB0197F90895EE0FFF1F72
:0C0D60000590F491E02D0994F894FFCF69
:100D6C00000000002C018C00B9007901EA00C800D9
:100D7C00DC000D0A004C656E646F206461646F7357
:100D8C0020646F2053656E736F722E2E2E0041639C
:100D9C00656E64612061204C757A2064652043691E
:100DAC006D61004163656E64612061206C757A2011
:100DBC00646520426169786F0041706167756520D8
:100DCC006173204C757A6573090931092D3E09321E
:100DDC0000417061677565206173204C757A65738D
:0A0DEC00090932092D3E093100000B
:00000001FF
