:100000000C9453000C947B000C947B000C947B00AC
:100010000C947B000C947B000C947B000C947B0074
:100020000C947B000C947B000C947B000C947B0064
:100030000C947B000C947B000C947B000C947B0054
:100040000C9414020C947B000C94E2010C94BC01FF
:100050000C947B000C947B000C947B000C947B0034
:100060000C947B000C947B0000000000250028000D
:100070002B0000000000240027002A0004040404D0
:100080000404040402020202020203030303030342
:10009000010204081020408001020408102001021F
:1000A000040810209D0311241FBECFEFD8E0DEBF4F
:1000B000CDBF11E0A0E0B1E0E8EEF7E002C00590AE
:1000C0000D92A834B107D9F721E0A8E4B1E001C04E
:1000D0001D92AE3EB207E1F710E0C3E5D0E004C0E8
:1000E0002197FE010E94EC03C235D107C9F70E9497
:1000F0005E020C94F2030C940000AF92BF92CF9278
:10010000DF92EF92FF920F931F93CF93DF936C01D7
:100110007B018B01040F151FEB015E01AE18BF08B8
:10012000C017D10759F06991D601ED91FC9101906A
:10013000F081E02DC6010995892B79F7C501DF9182
:10014000CF911F910F91FF90EF90DF90CF90BF90D4
:10015000AF900895FC01538D448D252F30E0842FFE
:1001600090E0821B930B541710F0CF9608950197DF
:100170000895FC01918D828D981761F0A28DAE0FCC
:10018000BF2FB11D5D968C91928D9F5F9F73928F53
:1001900090E008958FEF9FEF0895FC01918D828D7F
:1001A000981731F0828DE80FF11D858D90E008954C
:1001B0008FEF9FEF0895FC01918D228D892F90E0A4
:1001C000805C9F4F821B91098F739927089581E569
:1001D00091E00E94DB0021E0892B09F420E0822FCE
:1001E000089580E090E0892B29F00E94E7008111BA
:1001F0000C9400000895FC01A48DA80FB92FB11D27
:10020000A35ABF4F2C91848D90E001968F7399274C
:10021000848FA689B7892C93A089B1898C9183702A
:1002200080648C93938D848D981306C00288F38923
:10023000E02D80818F7D80830895EF92FF920F9350
:100240001F93CF93DF93EC0181E0888F9B8D8C8D82
:1002500098131AC0E889F989808185FF15C09FB776
:10026000F894EE89FF896083E889F9898081837039
:10027000806480839FBF81E090E0DF91CF911F91E8
:100280000F91FF90EF900895F62E0B8D10E00F5F09
:100290001F4F0F731127E02E8C8D8E110CC00FB6DF
:1002A00007FCFACFE889F989808185FFF5CFCE0177
:1002B0000E94FB00F1CFEB8DEC0FFD2FF11DE35AF7
:1002C000FF4FF0829FB7F8940B8FEA89FB898081FA
:1002D0008062CFCFCF93DF93EC01888D8823B9F074
:1002E000AA89BB89E889F9898C9185FD03C0808141
:1002F00086FD0DC00FB607FCF7CF8C9185FFF2CFBE
:10030000808185FFEDCFCE010E94FB00E9CFDF9118
:10031000CF9108953FB7F89480914D0190914E018F
:10032000A0914F01B091500126B5A89B05C02F3F69
:1003300019F00196A11DB11D3FBFBA2FA92F982F0B
:100340008827BC01CD01620F711D811D911D42E006
:10035000660F771F881F991F4A95D1F70895FC01F2
:1003600001900020E9F73197AF01481B590BBC0100
:1003700081E591E00C947D001F920F920FB60F92D1
:1003800011242F933F934F935F936F937F938F939A
:100390009F93AF93BF93EF93FF9381E591E00E940A
:1003A000FB00FF91EF91BF91AF919F918F917F9152
:1003B0006F915F914F913F912F910F900FBE0F90D2
:1003C0001F9018951F920F920FB60F9211242F9322
:1003D0008F939F93EF93FF93E0916101F0916201FE
:1003E0008081E0916701F091680182FD1BC09081DE
:1003F00080916A018F5F8F7320916B01821741F0AA
:10040000E0916A01F0E0EF5AFE4F958F80936A0108
:10041000FF91EF919F918F912F910F900FBE0F90B1
:100420001F9018958081F4CF1F920F920FB60F92F4
:1004300011242F933F938F939F93AF93BF938091FA
:10044000490190914A01A0914B01B0914C0130912A
:10045000480123E0230F2D3758F50196A11DB11D4A
:10046000209348018093490190934A01A0934B0146
:10047000B0934C0180914D0190914E01A0914F019C
:10048000B09150010196A11DB11D80934D01909333
:100490004E01A0934F01B0935001BF91AF919F9136
:1004A0008F913F912F910F900FBE0F901F90189535
:1004B00026E8230F0296A11DB11DD2CFCF93DF9363
:1004C000CDB7DEB7A1970FB6F894DEBF0FBECDBF94
:1004D000789484B5826084BD84B5816084BD85B51F
:1004E000826085BD85B5816085BD80916E0081602B
:1004F00080936E00109281008091810082608093D1
:1005000081008091810081608093810080918000D2
:100510008160809380008091B10084608093B100FD
:100520008091B00081608093B00080917A008460F7
:1005300080937A0080917A00826080937A00809123
:100540007A00816080937A0080917A00806880933D
:100550007A001092C100EEE9F0E02491EAE8F0E0C0
:1005600084918823C9F090E0880F991FFC01EE5810
:10057000FF4F45915491FC01E859FF4FA591B4916B
:100580009FB7F894FA0180812095822380838C9113
:10059000E22FE823EC939FBFE0916101F0916201AB
:1005A00082E08083E0915D01F0915E011082E09134
:1005B0005F01F09160018FEC808310926901E091FE
:1005C0006501F091660186E08083E0916301F0911E
:1005D0006401808180618083E0916301F091640116
:1005E000808188608083E0916301F0916401808163
:1005F00080688083E0916301F091640180818F7D48
:10060000808382E191E00E94AF018BE291E00E9441
:10061000AF0190E4392E2AE0822E912CA12CB12C2E
:100620008EE291E00E94AF0130927C0080917A00CE
:10063000806480937A0080917A0086FDFCCF90914F
:100640007800809179008927982789272C01092E25
:10065000000C6608770897FF5AC06DE281E591E0CB
:100660000E941D0122273327A901241935094609B3
:10067000570919A28E010F5D1F4FCA01B901A501CB
:1006800094010E94CA03605DF80162938F012115F5
:1006900031054105510589F70115110519F0C8010A
:1006A0000E94AF018CE291E00E94AF010E948A019A
:1006B0006B017C0184E6482E512C612C712C0E9428
:1006C0008A016C197D098E099F09683E7340810576
:1006D0009105A8F3F1E04F1A51086108710828EE5E
:1006E000C20E23E0D21EE11CF11C4114510461042E
:1006F000710429F780E090E0892B09F491CF0E94E2
:10070000E700882309F48CCF0E94000089CFA30161
:10071000920119A28E010F5D1F4FCA01B901A501F7
:1007200094010E94CA03605DF80162938F01211554
:1007300031054105510589F7AFCFE1E5F1E01382BD
:10074000128288EE93E0A0E0B0E084839583A683D4
:10075000B78384E091E09183808385EC90E0958776
:10076000848784EC90E09787868780EC90E0918B7B
:10077000808B81EC90E0938B828B82EC90E0958B68
:10078000848B86EC90E0978B868B118E128E138E65
:10079000148E0895A1E21A2EAA1BBB1BFD010DC0E9
:1007A000AA1FBB1FEE1FFF1FA217B307E407F50721
:1007B00020F0A21BB30BE40BF50B661F771F881FFD
:1007C000991F1A9469F760957095809590959B0193
:1007D000AC01BD01CF010895EE0FFF1F0590F4910C
:0807E000E02D0994F894FFCF0D
:1007E800000000001D017D00AA006A01DB00B900BD
:1007F800CD004C656E646F206461646F7320646F14
:100808002053656E736F722E2E2E000D0A005365ED
:100818006E736F72204C696E686120416E616C6FF7
:080828006769636F202D2000B9
:107E0000112484B714BE81FFF0D085E080938100F7
:107E100082E08093C00088E18093C10086E0809377
:107E2000C20080E18093C4008EE0C9D0259A86E02C
:107E300020E33CEF91E0309385002093840096BBD3
:107E4000B09BFECF1D9AA8958150A9F7CC24DD24C4
:107E500088248394B5E0AB2EA1E19A2EF3E0BF2EE7
:107E6000A2D0813461F49FD0082FAFD0023811F036
:107E7000013811F484E001C083E08DD089C08234E0
:107E800011F484E103C0853419F485E0A6D080C0E4
:107E9000853579F488D0E82EFF2485D0082F10E0AE
:107EA000102F00270E291F29000F111F8ED06801E7
:107EB0006FC0863521F484E090D080E0DECF843638
:107EC00009F040C070D06FD0082F6DD080E0C81688
:107ED00080E7D80618F4F601B7BEE895C0E0D1E017
:107EE00062D089930C17E1F7F0E0CF16F0E7DF06D8
:107EF00018F0F601B7BEE89568D007B600FCFDCFD4
:107F0000A601A0E0B1E02C9130E011968C91119780
:107F100090E0982F8827822B932B1296FA010C0160
:107F200087BEE89511244E5F5F4FF1E0A038BF0790
:107F300051F7F601A7BEE89507B600FCFDCF97BE46
:107F4000E89526C08437B1F42ED02DD0F82E2BD052
:107F50003CD0F601EF2C8F010F5F1F4F84911BD097
:107F6000EA94F801C1F70894C11CD11CFA94CF0C13
:107F7000D11C0EC0853739F428D08EE10CD085E9AC
:107F80000AD08FE07ACF813511F488E018D01DD067
:107F900080E101D065CF982F8091C00085FFFCCF94
:107FA0009093C60008958091C00087FFFCCF809118
:107FB000C00084FD01C0A8958091C6000895E0E648
:107FC000F0E098E1908380830895EDDF803219F02E
:107FD00088E0F5DFFFCF84E1DECF1F93182FE3DFCA
:107FE0001150E9F7F2DF1F91089580E0E8DFEE27F6
:047FF000FF270994CA
:027FFE00040479
:0400000300007E007B
:00000001FF
