:100000000C9462000C948A000C948A000C948A0070
:100010000C948A000C948A000C948A000C948A0038
:100020000C948A000C948A000C948A000C948A0028
:100030000C948A000C948A000C948A000C948A0018
:100040000C940B040C948A000C94D9030C94B30305
:100050000C948A000C948A000C948A000C948A00F8
:100060000C948A000C948A000000000024002700F1
:100070002A0000000000250028002B0000000008D6
:10008000000201000003040700000000000000005F
:1000900000000000230026002900040404040404D6
:1000A0000404020202020202030303030303010227
:1000B00004081020408001020408102001020408F6
:1000C00010209A0411241FBECFEFD8E0DEBFCDBFB1
:1000D00011E0A0E0B1E0EAE0FFE002C005900D927F
:1000E000AC39B107D9F722E0ACE9B1E001C01D920B
:1000F000AE34B207E1F710E0C2E6D0E004C02197C9
:10010000FE010E947D07C136D107C9F70E94FC0499
:100110000C9483070C940000AF92BF92CF92DF92B1
:10012000EF92FF920F931F93CF93DF936C017B01AC
:100130008B01040F151FEB015E01AE18BF08C0173D
:10014000D10759F06991D601ED91FC910190F081B0
:10015000E02DC6010995892B79F7C501DF91CF9173
:100160001F910F91FF90EF90DF90CF90BF90AF90D5
:100170000895FC01538D448D252F30E0842F90E0AD
:10018000821B930B541710F0CF9608950197089592
:10019000FC01918D828D981761F0A28DAE0FBF2F5B
:1001A000B11D5D968C91928D9F5F9F73928F90E0B1
:1001B00008958FEF9FEF0895FC01918D828D981720
:1001C00031F0828DE80FF11D858D90E008958FEF5D
:1001D0009FEF0895FC01918D228D892F90E0805C26
:1001E0009F4F821B91098F739927089585EA91E0AB
:1001F0000E94EA0021E0892B09F420E0822F089573
:1002000080E090E0892B29F00E94F60081110C9487
:1002100000000895FC01A48DA80FB92FB11DA35AA9
:10022000BF4F2C91848D90E001968F739927848F16
:10023000A689B7892C93A089B1898C918370806439
:100240008C93938D848D981306C00288F389E02DDA
:1002500080818F7D80830895EF92FF920F931F938B
:10026000CF93DF93EC0181E0888F9B8D8C8D981369
:100270001AC0E889F989808185FF15C09FB7F89475
:10028000EE89FF896083E889F989808183708064C1
:1002900080839FBF81E090E0DF91CF911F910F910C
:1002A000FF90EF900895F62E0B8D10E00F5F1F4F1B
:1002B0000F731127E02E8C8D8E110CC00FB607FC2A
:1002C000FACFE889F989808185FFF5CFCE010E94B8
:1002D0000A01F1CFEB8DEC0FFD2FF11DE35AFF4F1B
:1002E000F0829FB7F8940B8FEA89FB898081806246
:1002F000CFCFCF93DF93EC01888D8823B9F0AA8903
:10030000BB89E889F9898C9185FD03C0808186FDD0
:100310000DC00FB607FCF7CF8C9185FFF2CF80811F
:1003200085FFEDCFCE010E940A01E9CFDF91CF9189
:100330000895833081F028F4813099F08230A9F05B
:1003400008958730A9F08830C9F08430B1F48091E5
:1003500080008F7D03C0809180008F778093800024
:10036000089584B58F7784BD089584B58F7DFBCFC4
:100370008091B0008F778093B00008958091B00095
:100380008F7DF9CFCF93DF93282F30E0F901E45828
:10039000FF4F8491F901E255FF4FD491F901E656E0
:1003A000FF4FC491CC23A1F081110E949901EC2F41
:1003B000F0E0EE0FFF1FE057FF4FA591B491EC91D5
:1003C000ED2381E090E009F480E0DF91CF91089582
:1003D00080E090E0FACF1F93CF93DF93282F30E097
:1003E000F901E458FF4F8491F901E255FF4FD49190
:1003F000F901E656FF4FC491CC23A9F0162F8111C5
:100400000E949901EC2FF0E0EE0FFF1FEE58FF4F16
:10041000A591B4918FB7F894EC91111108C0D095C3
:10042000DE23DC938FBFDF91CF911F910895DE2BE8
:10043000F8CFCF93DF9390E0FC01E255FF4F24917A
:1004400086569F4FFC0184918823D1F090E0880F5D
:10045000991FFC01E859FF4FA591B491FC01EE589A
:10046000FF4FC591D49161110EC09FB7F8948C9144
:10047000E22FE0958E238C932881E223E8839FBFAF
:10048000DF91CF9108958FB7F894EC91E22BEC9324
:100490008FBFF6CF3FB7F8948091A1019091A20150
:1004A000A091A301B091A40126B5A89B05C02F3F40
:1004B00019F00196A11DB11D3FBFBA2FA92F982F8A
:1004C0008827BC01CD01620F711D811D911D42E085
:1004D000660F771F881F991F4A95D1F708958F924D
:1004E0009F92AF92BF92CF92DF92EF92FF924B0119
:1004F0005C010E944A026B017C010E944A026C1955
:100500007D098E099F09683E734081059105A8F316
:1005100021E0821A9108A108B10888EEC80E83E094
:10052000D81EE11CF11C81149104A104B10429F727
:10053000FF90EF90DF90CF90BF90AF909F908F9003
:10054000089560E084E00E94EB0160E082E00E9498
:10055000EB0161E085E00E94EB0161E083E00E9435
:10056000EB0168EC70E080E090E00C946F02FC011D
:1005700001900020E9F73197AF01481B590BBC01EE
:1005800085EA91E00C948C008F929F92AF92BF927B
:10059000CF92DF92EF92FF920F931F93CF93DF934F
:1005A000CDB7DEB7A1970FB6F894DEBF0FBECDBFB3
:1005B0006C01990FEE08FF08F7FE41C06DE285EA75
:1005C00091E00E942C018C0122273327A9012C19CC
:1005D0003D094E095F0919A2CE0181967C019AE07E
:1005E000892E912CA12CB12CCA01B901A50194012D
:1005F0000E945B07605DF70162937F012115310561
:100600004105510589F790E080E0309719F0CF015E
:100610000E94B702800F911FA1960FB6F894DEBF1B
:100620000FBECDBFDF91CF911F910F91FF90EF9043
:10063000DF90CF90BF90AF909F908F900895A701CB
:10064000960119A28E010F5D1F4F8AE0C82ED12C92
:10065000E12CF12CCA01B901A70196010E945B07A8
:10066000605DF80162938F01211531054105510547
:1006700089F790E080E0309779F2CF010E94B702CD
:10068000CBCFCF92DF92EF92FF920F931F93CF9336
:10069000DF93EC0160E088810E94EB0183E090E051
:1006A0000197F1F761E088810E94EB0183E290E01D
:1006B0000197F1F760E088810E94EB018A819B81BC
:1006C0009927FC01E255FF4F6491FC01E656FF4F6C
:1006D000E491F0E0EE0FFF1FE057FF4F85919491FA
:1006E00000E412E42FE030E0462F0E94550461152B
:1006F00071058105910529F06F5F7F4F8F4F9F4FE7
:100700009F700E94370620E030E040E05FE30E94E7
:100710009D062AE23EE74CE05DE30E949D066B01E8
:100720007C0120E030E0A9010E943206882351F0CC
:1007300020E030E048EC53E4C701B6010E9498067F
:10074000181634F4C12CD12C80E8E82E8FEBF82E4B
:10075000C701B601DF91CF911F910F91FF90EF90EC
:10076000DF90CF9008951F920F920FB60F92112431
:100770002F933F934F935F936F937F938F939F93A9
:10078000AF93BF93EF93FF9385EA91E00E940A0134
:10079000FF91EF91BF91AF919F918F917F916F9159
:1007A0005F914F913F912F910F900FBE0F901F902F
:1007B00018951F920F920FB60F9211242F938F93BB
:1007C0009F93EF93FF93E091B501F091B601808183
:1007D000E091BB01F091BC0182FD1BC09081809132
:1007E000BE018F5F8F732091BF01821741F0E091AE
:1007F000BE01F0E0EB55FE4F958F8093BE01FF9157
:10080000EF919F918F912F910F900FBE0F901F909E
:1008100018958081F4CF1F920F920FB60F9211247A
:100820002F933F938F939F93AF93BF9380919D019D
:1008300090919E01A0919F01B091A00130919C01E7
:1008400023E0230F2D3758F50196A11DB11D2093EC
:100850009C0180939D0190939E01A0939F01B09372
:10086000A0018091A1019091A201A091A301B0915A
:10087000A4010196A11DB11D8093A1019093A20135
:10088000A093A301B093A401BF91AF919F918F91C9
:100890003F912F910F900FBE0F901F90189526E853
:1008A000230F0296A11DB11DD2CFCF92DF92EF92FE
:1008B000FF920F931F93E82FF92F05C001501109E4
:1008C0002109310961F1908196239417B9F305C08C
:1008D000015011092109310911F1908196239413D6
:1008E000F7CFC12CD12CE12CF12C0AC08FEFC81A04
:1008F000D80AE80AF80A0C151D052E053F0579F0FF
:1009000080818623841791F36C2D7D2D8E2D9F2D54
:100910001F910F91FF90EF90DF90CF90089560E0CE
:1009200070E080E090E01F910F91FF90EF90DF90DA
:10093000CF900895E5EAF1E01382128288EE93E009
:10094000A0E0B0E084839583A683B78384E091E040
:100950009183808385EC90E09587848784EC90E098
:100960009787868780EC90E0918B808B81EC90E07C
:10097000938B828B82EC90E0958B848B86EC90E05D
:10098000978B868B118E128E138E148EEAE4F2E012
:1009900086E090E09183808387E090E09383828378
:1009A00061E086E00E94190260E087E00E9419027F
:1009B000E6E4F2E088E090E09183808389E090E0D3
:1009C0009383828361E088E00E94190260E089E0FD
:1009D0000E941902E2E4F2E08AE090E091838083D1
:1009E0008BE090E09383828361E08AE00E941902A9
:1009F00060E08BE00C941902789484B5826084BD29
:100A000084B5816084BD85B5826085BD85B5816012
:100A100085BD80916E00816080936E001092810090
:100A2000809181008260809381008091810081604B
:100A3000809381008091800081608093800080910C
:100A4000B10084608093B1008091B0008160809398
:100A5000B00080917A00846080937A0080917A005F
:100A6000826080937A0080917A00816080937A001E
:100A700080917A00806880937A001092C10060E0D3
:100A80008EE00E94190260E08FE00E94190260E08F
:100A90008CE00E94190260E08DE00E94190261E082
:100AA00082E00E94190261E083E00E94190261E085
:100AB00084E00E94190261E085E00E941902E09141
:100AC000B501F091B60182E08083E091B101F0912F
:100AD000B2011082E091B301F091B4018FEC8083F8
:100AE0001092BD01E091B901F091BA0186E08083D6
:100AF000E091B701F091B801808180618083E0913D
:100B0000B701F091B801808188608083E091B701DE
:100B1000F091B801808180688083E091B701F09105
:100B2000B80180818F7D808382E191E00E94B702CD
:100B30008BE291E00E94B702C0E0D0E08AE492E04C
:100B40000E9441032B013C0186E492E00E94410394
:100B50006B017C0182E492E00E9441034B015C0145
:100B60008EE291E00E94B7028EE00E94C2010E94D4
:100B7000C4028AE491E00E94B7028FE00E94C201A1
:100B80000E94C40287E691E00E94B7028CE00E94B6
:100B9000C2010E94C40281E891E00E94B7028DE088
:100BA0000E94C2010E94C40264E670E080E090E00E
:100BB0000E946F0220E030E040E251E4C701B6013C
:100BC0000E94980661E087FF48C0A3019201C50119
:100BD000B4010E94320687FF2CC020E030E040EADA
:100BE00050E4C701B6010E94320687FD0E94A102AF
:100BF00061E084E00E94EB0160E082E00E94EB0192
:100C000060E085E00E94EB0160E083E00E94EB0180
:100C100068EC70E080E090E00E946F02209709F499
:100C20008DCF0E94F600882309F488CF0E9400002F
:100C300085CFA3019201C501B4010E949806181640
:100C40006CF720E030E040EA50E4C701B6010E94B2
:100C5000320687FD0E94A10260E084E00E94EB0161
:100C600061E0CBCF0E94740608F481E00895E89417
:100C700009C097FB3EF490958095709561957F4FE4
:100C80008F4F9F4F9923A9F0F92F96E9BB27939592
:100C9000F695879577956795B795F111F8CFFAF4A2
:100CA000BB0F11F460FF1BC06F5F7F4F8F4F9F4FD3
:100CB00016C0882311F096E911C0772321F09EE831
:100CC000872F762F05C0662371F096E8862F70E097
:100CD00060E02AF09A95660F771F881FDAF7880F71
:100CE0009695879597F90895990F0008550FAA0BC7
:100CF000E0E8FEEF16161706E807F907C0F012162F
:100D00001306E407F50798F0621B730B840B950B31
:100D100039F40A2661F0232B242B252B21F4089586
:100D20000A2609F4A140A6958FEF811D811D089523
:100D30000E94740608F48FEF08950E94B0060C9488
:100D400021070E94130738F00E941A0720F095230C
:100D500011F00C940A070C94100711240C945507F9
:100D60000E94320770F3959FC1F3950F50E0551F15
:100D7000629FF001729FBB27F00DB11D639FAA27F0
:100D8000F00DB11DAA1F649F6627B00DA11D661F3F
:100D9000829F2227B00DA11D621F739FB00DA11D60
:100DA000621F839FA00D611D221F749F3327A00D1A
:100DB000611D231F849F600D211D822F762F6A2FB6
:100DC00011249F5750409AF0F1F088234AF0EE0F1B
:100DD000FF1FBB1F661F771F881F91505040A9F748
:100DE0009E3F510580F00C940A070C9455075F3F15
:100DF000E4F3983ED4F3869577956795B795F79584
:100E0000E7959F5FC1F7FE2B880F911D96958795FB
:100E100097F9089597F99F6780E870E060E008957A
:100E20009FEF80EC089500240A9416161706180602
:100E30000906089500240A941216130614060506DE
:100E40000895092E0394000C11F4882352F0BB0F6F
:100E500040F4BF2B11F460FF04C06F5F7F4F8F4FD2
:100E60009F4F089557FD9058440F551F59F05F3F0D
:100E700071F04795880F97FB991F61F09F3F79F0BC
:100E800087950895121613061406551FF2CF46953E
:100E9000F1DF08C0161617061806991FF1CF8695C0
:100EA0007105610508940895E894BB2766277727A4
:100EB000CB0197F90895A1E21A2EAA1BBB1BFD01D5
:100EC0000DC0AA1FBB1FEE1FFF1FA217B307E40729
:100ED000F50720F0A21BB30BE40BF50B661F771F81
:100EE000881F991F1A9469F7609570958095909561
:100EF0009B01AC01BD01CF010895EE0FFF1F0590CE
:0A0F0000F491E02D0994F894FFCF5E
:100F0A00000000002C018C00B9007901EA00C80039
:100F1A00DC004C656E646F206461646F7320646FDB
:100F2A002053656E736F722E2E2E000D0A005365C4
:100F3A006E736F72204469726569746120416E61D3
:100F4A006C6F6769636F203D200053656E736F7223
:100F5A0020457371756572646120416E616C6F67BB
:100F6A0069636F203D200053656E736F7220446978
:100F7A007265697461204469676974616C203D20F7
:100F8A000053656E736F7220457371756572646183
:0C0F9A00204469676974616C203D2000F0
:107E0000112484B714BE81FFF0D085E080938100F7
:107E100082E08093C00088E18093C10086E0809377
:107E2000C20080E18093C4008EE0C9D0259A86E02C
:107E300020E33CEF91E0309385002093840096BBD3
:107E4000B09BFECF1D9AA8958150A9F7CC24DD24C4
:107E500088248394B5E0AB2EA1E19A2EF3E0BF2EE7
:107E6000A2D0813461F49FD0082FAFD0023811F036
:107E7000013811F484E001C083E08DD089C08234E0
:107E800011F484E103C0853419F485E0A6D080C0E4
:107E9000853579F488D0E82EFF2485D0082F10E0AE
:107EA000102F00270E291F29000F111F8ED06801E7
:107EB0006FC0863521F484E090D080E0DECF843638
:107EC00009F040C070D06FD0082F6DD080E0C81688
:107ED00080E7D80618F4F601B7BEE895C0E0D1E017
:107EE00062D089930C17E1F7F0E0CF16F0E7DF06D8
:107EF00018F0F601B7BEE89568D007B600FCFDCFD4
:107F0000A601A0E0B1E02C9130E011968C91119780
:107F100090E0982F8827822B932B1296FA010C0160
:107F200087BEE89511244E5F5F4FF1E0A038BF0790
:107F300051F7F601A7BEE89507B600FCFDCF97BE46
:107F4000E89526C08437B1F42ED02DD0F82E2BD052
:107F50003CD0F601EF2C8F010F5F1F4F84911BD097
:107F6000EA94F801C1F70894C11CD11CFA94CF0C13
:107F7000D11C0EC0853739F428D08EE10CD085E9AC
:107F80000AD08FE07ACF813511F488E018D01DD067
:107F900080E101D065CF982F8091C00085FFFCCF94
:107FA0009093C60008958091C00087FFFCCF809118
:107FB000C00084FD01C0A8958091C6000895E0E648
:107FC000F0E098E1908380830895EDDF803219F02E
:107FD00088E0F5DFFFCF84E1DECF1F93182FE3DFCA
:107FE0001150E9F7F2DF1F91089580E0E8DFEE27F6
:047FF000FF270994CA
:027FFE00040479
:0400000300007E007B
:00000001FF
